{
    "contract_name": "Calculator",
    "sourcePath": "/home/ahmad/projects/calculator/contracts/Calculator.sol",
    "source": "pragma solidity 0.4.18;\n\ncontract Calculator {\n\n    function Sum(int x1, int x2) public pure returns(int ) {\n\n        return ( x1 + x2);\n    }\n\n    function Mul(int x1, int x2) public pure returns(int ) {\n\n        return (x1 * x2);\n    }\n\n    function Div(int x1, int x2) public pure returns(int ) {\n\n        return (x1 / x2);\n    }\n\n    function Sub(int x1, int x2) public pure returns(int ) {\n\n        return (x1 - x2);\n    }\n    \n}\n\n\n",
    "abi": [
        {
            "constant": true,
            "inputs": [
                {
                    "name": "x1",
                    "type": "int256"
                },
                {
                    "name": "x2",
                    "type": "int256"
                }
            ],
            "name": "Sub",
            "outputs": [
                {
                    "name": "",
                    "type": "int256"
                }
            ],
            "payable": false,
            "stateMutability": "pure",
            "type": "function"
        },
        {
            "constant": true,
            "inputs": [
                {
                    "name": "x1",
                    "type": "int256"
                },
                {
                    "name": "x2",
                    "type": "int256"
                }
            ],
            "name": "Div",
            "outputs": [
                {
                    "name": "",
                    "type": "int256"
                }
            ],
            "payable": false,
            "stateMutability": "pure",
            "type": "function"
        },
        {
            "constant": true,
            "inputs": [
                {
                    "name": "x1",
                    "type": "int256"
                },
                {
                    "name": "x2",
                    "type": "int256"
                }
            ],
            "name": "Sum",
            "outputs": [
                {
                    "name": "",
                    "type": "int256"
                }
            ],
            "payable": false,
            "stateMutability": "pure",
            "type": "function"
        },
        {
            "constant": true,
            "inputs": [
                {
                    "name": "x1",
                    "type": "int256"
                },
                {
                    "name": "x2",
                    "type": "int256"
                }
            ],
            "name": "Mul",
            "outputs": [
                {
                    "name": "",
                    "type": "int256"
                }
            ],
            "payable": false,
            "stateMutability": "pure",
            "type": "function"
        }
    ],
    "bytecode": "0x6060604052341561000f57600080fd5b6101d08061001e6000396000f300606060405260043610610062576000357c0100000000000000000000000000000000000000000000000000000000900463ffffffff168063166dec531461006757806375aac69e146100a7578063eb638f12146100e7578063fa94904d14610127575b600080fd5b341561007257600080fd5b6100916004808035906020019091908035906020019091905050610167565b6040518082815260200191505060405180910390f35b34156100b257600080fd5b6100d16004808035906020019091908035906020019091905050610174565b6040518082815260200191505060405180910390f35b34156100f257600080fd5b610111600480803590602001909190803590602001909190505061018a565b6040518082815260200191505060405180910390f35b341561013257600080fd5b6101516004808035906020019091908035906020019091905050610197565b6040518082815260200191505060405180910390f35b6000818303905092915050565b6000818381151561018157fe5b05905092915050565b6000818301905092915050565b60008183029050929150505600a165627a7a72305820187953749ae9d68f41b934ee6131db419c24004caf3c5a0ab34fffe9636dc6dc0029",
    "unlinked_binary": "0x6060604052341561000f57600080fd5b6101d08061001e6000396000f300606060405260043610610062576000357c0100000000000000000000000000000000000000000000000000000000900463ffffffff168063166dec531461006757806375aac69e146100a7578063eb638f12146100e7578063fa94904d14610127575b600080fd5b341561007257600080fd5b6100916004808035906020019091908035906020019091905050610167565b6040518082815260200191505060405180910390f35b34156100b257600080fd5b6100d16004808035906020019091908035906020019091905050610174565b6040518082815260200191505060405180910390f35b34156100f257600080fd5b610111600480803590602001909190803590602001909190505061018a565b6040518082815260200191505060405180910390f35b341561013257600080fd5b6101516004808035906020019091908035906020019091905050610197565b6040518082815260200191505060405180910390f35b6000818303905092915050565b6000818381151561018157fe5b05905092915050565b6000818301905092915050565b60008183029050929150505600a165627a7a72305820187953749ae9d68f41b934ee6131db419c24004caf3c5a0ab34fffe9636dc6dc0029",
    "compiler": {
        "name": "solc",
        "version": "0.4.18+commit.9cf6e910.Emscripten.clang"
    }
}